S01900004D6F746F7220496E746572666163696E672E7372656370
S11300000C942A000C9434000C9434000C943400A6
S11300100C9434000C9434000C9434000C9434008C
S11300200C9434000C9434000C9434000C9434007C
S11300300C9434000C9434000C9434000C9434006C
S11300400C9434000C9434000C9434000C9434005C
S11300500C94340011241FBECFE5D4E0DEBFCDBF25
S11300600E9436000C948F000C94000083EC84BB37
S113007081E085BB2FEF8DE399E4215080409040CF
S1130080E1F700C0000080E485BB2FEF8DE399E425
S1130090215080409040E1F700C0000081E485BB1E
S11300A02FEF8DE399E4215080409040E1F700C0A8
S11300B0000015BA2FEF8DE399E421508040904061
S11300C0E1F700C0000082E085BB2FEF8DE399E4E7
S11300D0215080409040E1F700C0000080E885BBDB
S11300E02FEF8DE399E4215080409040E1F700C068
S11300F0000082E885BB2FEF8DE399E42150804016
S11301009040E1F700C0000015BA2FEF8DE399E4A9
S1130110215080409040E1F700C00000A9CFF8943E
S1050120FFCF0B
S9030000FC
