:100000000C942A000C9434000C9434000C943400AA
:100010000C9434000C9434000C9434000C94340090
:100020000C9434000C9434000C9434000C94340080
:100030000C9434000C9434000C9434000C94340070
:100040000C9434000C9434000C9434000C94340060
:100050000C94340011241FBECFE5D4E0DEBFCDBF29
:100060000E9436000C944F000C94000083EC84BB7B
:100070001ABAC89B03C081E485BBFBCFC99B03C0F0
:1000800082E885BBF6CFCA9B03C081E885BBF1CF70
:10009000CB9B03C082E485BBECCF15BAEACFF894C2
:0200A000FFCF90
:00000001FF
