:100000000C942A000C9434000C9434000C943400AA
:100010000C9434000C9434000C9434000C94340090
:100020000C9434000C9434000C9434000C94340080
:100030000C9434000C9434000C9434000C94340070
:100040000C9434000C9434000C9434000C94340060
:100050000C94340011241FBECFE5D4E0DEBFCDBF29
:100060000E9436000C94AD000C9400008FE08ABB17
:1000700084BB8BB381608BBB8BB3817F8BBBCD9BF0
:1000800003C081E085BB09C0CE9B03C082E085BB75
:1000900004C0CF9B02C083E085BB2FEF80E792E0D6
:1000A000215080409040E1F700C000008BB3826097
:1000B0008BBB8BB3827F8BBBCD9B03C084E085BBA6
:1000C00009C0CE9B03C085E085BB04C0CF9B02C0A6
:1000D00086E085BB2FEF80E792E021508040904082
:1000E000E1F700C000008BB384608BBB8BB3847FCF
:1000F0008BBBCD9B03C087E085BB09C0CE9B03C0F3
:1001000088E085BB04C0CF9B02C089E085BB2FEF90
:1001100080E792E0215080409040E1F700C000006D
:100120008BB388608BBB8BB3887F8BBBCD9B03C0AD
:100130008CE085BB08C0CE9B02C015BA04C0CF9B23
:1001400002C08FE085BB2FEF80E792E02150804016
:0E0150009040E1F700C000008CCFF894FFCF84
:00000001FF
