S02000004C434420496E746572666163652077697468204D6F746F722E7372656373
S11300000C942A000C943F000C943F000C943F0085
S11300100C943F000C943F000C943F000C943F0060
S11300200C943F000C943F000C943F000C943F0050
S11300300C943F000C943F000C943F000C943F0040
S11300400C943F000C943F000C943F000C943F0030
S11300500C943F0011241FBECFE5D4E0DEBFCDBF1A
S113006010E0A0E6B0E0ECE0F2E002C005900D92F2
S1130070A839B107D9F70E948F000C9404010C949D
S1130080000015BA82BB82E085BB8FE19EE4019734
S1130090F1F700C0000015BA8FE19EE40197F1F773
S11300A000C00000089591E095BB82BB83E085BB4E
S11300B0EFE1FEE43197F1F700C0000095BB8FE15A
S11300C09EE40197F1F700C0000008952FEF82E548
S11300D097E0215080409040E1F700C0000088E3A1
S11300E00E9441008CE00E94410081E00E94410096
S11300F08FE19EE40197F1F700C0000086E00E94C2
S113010041000895CF93DF93EC0103C00E94530094
S1130110219688818111FACFDF91CF91089583E0F0
S113012084BB8FEF81BB83EC87BB0E94660080E8B1
S11301300E94410080E690E00E94820081E488BB36
S11301402FEF8DE399E4215080409040E1F700C007
S1130150000081E00E9441008FEC97E00197F1F7E5
S113016000C0000080E80E9441008FE690E00E94F9
S1130170820082E888BB9FEF2DE389E49150204000
S11301808040E1F700C0000081E00E9441008FEC54
S113019097E00197F1F700C0000080E80E94410059
S11301A08FE790E00E94820081E888BB9FEF2DE3F7
S11301B089E4915020408040E1F700C0000081E0D4
S11301C00E9441008FEC97E00197F1F700C0000016
S11301D080E80E9441008BE890E00E94820082E463
S11301E088BB9FEF2DE389E4915020408040E1F7E4
S11301F000C0000081E00E9441008FEC97E001976D
S10F0200F1F700C0000093CFF894FFCF8A
S113020C4D6F76696E6720666F7277617264004D0C
S113021C6F76696E67206261636B77617264004DFF
S113022C6F76696E67204C656674004D6F76696EE7
S10B023C672072696768740011
S9030000FC
