S015000041444320537769746368696E672E7372656377
S11300000C942A000C9434000C9434000C943400A6
S11300100C9434000C9434000C9434000C9434008C
S11300200C9434000C9434000C9434000C9434007C
S11300300C9434000C9434000C9434000C9434006C
S11300400C9434000C9434000C9434000C9434005C
S11300500C94340011241FBECFE5D4E0DEBFCDBF25
S11300600E9436000C94DF000C9400001ABA83E45A
S113007087B986E886B98FEF84BB86B1806486B978
S1130080349BFECF84B195B184B195B10B9710F434
S113009015BAF3CF84B195B10B9738F084B195B10B
S11300A0CC9718F48CE085BBE8CF84B195B1CC979C
S11300B040F084B195B18436910518F48EE085BB87
S11300C0DCCF84B195B18436910540F084B195B10B
S11300D0883C910518F481E085BBCFCF84B195B1FC
S11300E0883C910540F084B195B18C32914018F46C
S11300F082E085BBC2CF84B195B18C32914040F08F
S113010084B195B18039914018F483E085BBB5CFB3
S113011084B195B18039914040F084B195B1843F68
S1130120914018F484E085BBA8CF84B195B1843F95
S1130130914040F084B195B18835924018F485E03F
S113014085BB9BCF84B195B18835924040F084B192
S113015095B18C3B924018F486E085BB8ECF84B178
S113016095B18C3B924040F084B195B1803293407C
S113017018F487E085BB81CF84B195B18032934078
S113018040F084B195B18438934018F488E085BB7D
S113019074CF84B195B18438934040F084B195B163
S11301A0883E934018F489E085BB67CF84B195B14C
S11301B0883E934008F461CF8FE085BB5ECFF8940E
S10501C0FFCF6B
S9030000FC
