:100000000C942A000C9434000C9434000C943400AA
:100010000C9434000C9434000C9434000C94340090
:100020000C9434000C9434000C9434000C94340080
:100030000C9434000C9434000C9434000C94340070
:100040000C9434000C9434000C9434000C94340060
:100050000C94340011241FBECFE5D4E0DEBFCDBF29
:100060000E9436000C947F000C94000083EC84BB4B
:1000700080E090E0C89B09C0C899FECF8730910509
:1000800011F0019602C080E090E0CF9B08C0CF99AC
:10009000FECF009711F0019702C087E090E0009733
:1000A00019F421E825BBE6CF8130910519F420E849
:1000B00025BBE0CF8230910519F420EC25BBDACFC7
:1000C0008330910519F420E425BBD4CF8430910509
:1000D00019F422E425BBCECF8530910519F422E036
:1000E00025BBC8CF8630910519F423E025BBC2CFCC
:1000F0008730910509F0BECF21E025BBBBCFF89436
:02010000FFCF2F
:00000001FF
