:100000000C942A000C943F000C943F000C943F0089
:100010000C943F000C943F000C943F000C943F0064
:100020000C943F000C943F000C943F000C943F0054
:100030000C943F000C943F000C943F000C943F0044
:100040000C943F000C943F000C943F000C943F0034
:100050000C943F0011241FBECFE5D4E0DEBFCDBF1E
:1000600010E0A0E6B0E0E8E2F3E002C005900D92F7
:10007000A837B107D9F70E94DB000C9492010C94C9
:10008000000012BA92B3282F207F922B92BB92B31A
:10009000926092BBEFE1FEE43197F1F700C00000FF
:1000A00092B39D7F92BBEFE1FEE43197F1F700C080
:1000B000000012BA22B3F0E18F9FC0011124822BFD
:1000C00082BB82B3826082BB8FE19EE40197F1F72D
:1000D00000C0000082B38D7F82BBEFE1FEE4319768
:1000E000F1F700C00000089521E022BB92B3382F41
:1000F000307F932B92BB92B3926092BBEFE1FEE410
:100100003197F1F700C0000092B39D7F92BBEFE101
:10011000FEE43197F1F700C0000022BB22B3F0E10A
:100120008F9FC0011124822B82BB82B3826082BB6D
:100130008FE19EE40197F1F700C0000082B38D7F4C
:1001400082BBEFE1FEE43197F1F700C000000895B3
:100150008FEF81BB2FEF82E597E0215080409040E8
:10016000E1F700C0000083E30E94410082E30E94A7
:10017000410088E20E9441008CE00E94410081E041
:100180000E9441008FE19EE40197F1F700C000005A
:1001900086E00E9441000895CF93DF93EB010E9417
:1001A000410003C00E947400219688818111FACF1A
:1001B000DF91CF9108958FE08ABB8FEF81BB0E94C2
:1001C000A8008BB381608BBB8BB3817F8BBBCD9B36
:1001D00008C0CD99FECF60E670E080E80E94CC00B8
:1001E00013C0CE9B08C0CE99FECF62E670E080E8D7
:1001F0000E94CC0009C0CF9B07C0CF99FECF64E618
:1002000070E080E80E94CC002FEF80E792E0215060
:1002100080409040E1F700C000008BB382608BBB50
:100220008BB3827F8BBBCD9B08C0CD99FECF66E69A
:1002300070E080E80E94CC0013C0CE9B08C0CE992D
:10024000FECF68E670E080E80E94CC0009C0CF9B3A
:1002500007C0CF99FECF6AE670E080E80E94CC002C
:100260002FEF80E792E0215080409040E1F700C0FE
:1002700000008BB384608BBB8BB3847F8BBBCD9B27
:1002800008C0CD99FECF6CE670E080E80E94CC00FB
:1002900013C0CE9B08C0CE99FECF6EE670E080E81A
:1002A0000E94CC0009C0CF9B07C0CF99FECF60E76A
:1002B00070E080E80E94CC002FEF80E792E02150B0
:1002C00080409040E1F700C000008BB388608BBB9A
:1002D0008BB3887F8BBBCD9B08C0CD99FECF62E7E7
:1002E00070E080E80E94CC0013C0CE9B08C0CE997D
:1002F000FECF64E770E080E80E94CC0009C0CF9B8D
:1003000007C0CF99FECF66E770E080E80E94CC007E
:100310002FEF80E792E0215080409040E1F700C04D
:0803200000004FCFF894FFCF5D
:100328003100320033003400350036003700380021
:0803380039002A003000230007
:00000001FF
