S02500004144432D4D756C7469706C652053656E736F7220496E746572666163652E7372656373
S11300000C942A000C9434000C9434000C943400A6
S11300100C9434000C9434000C9434000C9434008C
S11300200C9434000C9434000C9434000C9434007C
S11300300C9434000C9434000C9434000C9434006C
S11300400C9434000C9434000C9434000C9434005C
S11300500C94340011241FBECFE5D4E0DEBFCDBF25
S11300600E9444000C9459000C9400001ABA806455
S113007087B986E886B9089586B1806486B9349BC9
S1130080FECF84B195B108958FEF84BB83E081BB2B
S113009081E00E9436000E943C0085BB92BB2FEF9A
S11300A080E792E0215080409040E1F700C00000DA
S10900B0EFCFF894FFCF2E
S9030000FC
