:100000000C942A000C9434000C9434000C943400AA
:100010000C9434000C9434000C9434000C94340090
:100020000C9434000C9434000C9434000C94340080
:100030000C9434000C9434000C9434000C94340070
:100040000C9434000C9434000C9434000C94340060
:100050000C94340011241FBECFE5D4E0DEBFCDBF29
:100060000E9436000C9459000C94000083E08ABB77
:1000700081E08BBB80E090E0DC0103C00196A11D14
:10008000B11D81342DE0920723E0A207B105B4F33E
:1000900082E08BBB80E090E0DC0103C00196A11DF3
:1000A000B11D81342DE0920723E0A207B105B4F31E
:0600B000DFCFF894FFCF42
:00000001FF
