S01100004C434420342D6269742E7372656380
S11300000C942A000C943F000C943F000C943F0085
S11300100C943F000C943F000C943F000C943F0060
S11300200C943F000C943F000C943F000C943F0050
S11300300C943F000C943F000C943F000C943F0040
S11300400C943F000C943F000C943F000C943F0030
S11300500C943F0011241FBECFE5D4E0DEBFCDBF1A
S113006010E0A0E6B0E0ECE9F2E002C005900D92E9
S1130070A839B107D9F70E94D9000C944C010C940B
S1130080000012BA92B3282F207F922B92BB92B316
S1130090926092BBEFE1FEE43197F1F700C00000FB
S11300A092B39D7F92BBEFE1FEE43197F1F700C07C
S11300B0000012BA22B3F0E18F9FC0011124822BF9
S11300C082BB82B3826082BB8FE19EE40197F1F729
S11300D000C0000082B38D7F82BBEFE1FEE4319764
S11300E0F1F700C00000089521E022BB92B3382F3D
S11300F0307F932B92BB92B3926092BBEFE1FEE40C
S11301003197F1F700C0000092B39D7F92BBEFE1FD
S1130110FEE43197F1F700C0000022BB22B3F0E106
S11301208F9FC0011124822B82BB82B3826082BB69
S11301308FE19EE40197F1F700C0000082B38D7F48
S113014082BBEFE1FEE43197F1F700C000000895AF
S11301508FEF81BB2FEF82E597E0215080409040E4
S1130160E1F700C0000083E30E94410082E30E94A3
S1130170410088E20E9441008CE00E94410081E03D
S11301800E9441008FE19EE40197F1F700C0000056
S113019086E00E9441000895CF93DF93EC0103C0F1
S11301A00E947400219688818111FACFDF91CF914A
S11301B0089583EF81BB83EC87BB0E94A80080E88D
S11301C00E94410080E690E00E94CC0081E488BB5C
S11301D02FEF8DE399E4215080409040E1F700C077
S11301E0000081E00E9441008FEC97E00197F1F755
S11301F000C0000080E80E9441008FE690E00E9469
S1130200CC0082E888BB9FEF2DE389E49150204025
S11302108040E1F700C0000081E00E9441008FECC3
S113022097E00197F1F700C0000080E80E944100C8
S11302308FE790E00E94CC0081E888BB9FEF2DE31C
S113024089E4915020408040E1F700C0000081E043
S11302500E9441008FEC97E00197F1F700C0000085
S113026080E80E9441008BE890E00E94CC0082E488
S113027088BB9FEF2DE389E4915020408040E1F753
S113028000C0000081E00E9441008FEC97E00197DC
S10F0290F1F700C0000093CFF894FFCFFA
S113029C4D6F76696E6720666F7277617264004D7C
S11302AC6F76696E67206261636B77617264004D6F
S11302BC6F76696E67204C656674004D6F76696E57
S10B02CC672072696768740081
S9030000FC
