:100000000C942A000C9434000C9434000C943400AA
:100010000C9434000C9434000C9434000C94340090
:100020000C9434000C9434000C9434000C94340080
:100030000C9434000C9434000C9436000C9434006E
:100040000C9434000C9434000C9434000C94340060
:100050000C94340011241FBECFE5D4E0DEBFCDBF29
:100060000E946C000C94AB010C9400001F920F9244
:100070000FB60F9211242F933F934F935F936F937B
:100080007F938F939F93AF93BF93EF93FF9364B14D
:1000900075B180E090E00E94B00020E030E040E8E0
:1000A0005EE30E9416010E947A006CBFFF91EF91FF
:1000B000BF91AF919F918F917F916F915F914F9180
:1000C0003F912F910F900FBE0F901F901895806455
:1000D00087B98EE886B9089588E087BB8AE683BF32
:1000E00012BE789480E090E00E94670086B1806440
:1000F00086B9FCCF0E9481006894B1110C94100164
:1001000008950E94F50088F09F5798F0B92F99271D
:10011000B751B0F0E1F0660F771F881F991F1AF0F2
:10012000BA95C9F714C0B13091F00E940F01B1E047
:1001300008950C940F01672F782F8827B85F39F046
:10014000B93FCCF3869577956795B395D9F73EF48B
:1001500090958095709561957F4F8F4F9F4F089533
:10016000E89409C097FB3EF4909580957095619551
:100170007F4F8F4F9F4F9923A9F0F92F96E9BB2707
:100180009395F695879577956795B795F111F8CF83
:10019000FAF4BB0F11F460FF1BC06F5F7F4F8F4FEE
:1001A0009F4F16C0882311F096E911C0772321F0E4
:1001B0009EE8872F762F05C0662371F096E8862F7C
:1001C00070E060E02AF09A95660F771F881FDAF7D3
:1001D000880F9695879597F9089557FD9058440F85
:1001E000551F59F05F3F71F04795880F97FB991F96
:1001F00061F09F3F79F08795089512161306140653
:10020000551FF2CF4695F1DF08C0161617061806DF
:10021000991FF1CF86957105610508940895E894BA
:10022000BB2766277727CB0197F908950E942901FC
:100230000C949A010E948C0138F00E94930120F0E6
:10024000952311F00C9483010C94890111240C94D2
:1002500010010E94ED0070F3959FC1F3950F50E0DF
:10026000551F629FF001729FBB27F00DB11D639F68
:10027000AA27F00DB11DAA1F649F6627B00DA11D0E
:10028000661F829F2227B00DA11D621F739FB00DB4
:10029000A11D621F839FA00D611D221F749F332724
:1002A000A00D611D231F849F600D211D822F762FBD
:1002B0006A2F11249F5750409AF0F1F088234AF09A
:1002C000EE0FFF1FBB1F661F771F881F9150504006
:1002D000A9F79E3F510580F00C9483010C94100106
:1002E0005F3FE4F3983ED4F3869577956795B7958D
:1002F000F795E7959F5FC1F7FE2B880F911D9695A7
:10030000879597F9089597F99F6780E870E060E016
:1003100008959FEF80EC089500240A94161617069E
:1003200018060906089500240A94121613061406E6
:1003300005060895092E0394000C11F4882352F049
:10034000BB0F40F4BF2B11F460FF04C06F5F7F4F01
:0A0350008F4F9F4F0895F894FFCFE0
:00000001FF
