S01D0000496E7465727275707473202845787465726E616C292E7372656313
S11300000C942A000C9472000C9434000C94340068
S11300100C9434000C9434000C9434000C9434008C
S11300200C9434000C9434000C9434000C9434007C
S11300300C9434000C9434000C9434000C9434006C
S11300400C9434000C9434000C9436000C9434005A
S11300500C94340011241FBECFE5D4E0DEBFCDBF25
S11300600E94D8000C9453010C9400001F920F922C
S11300700FB60F9211242F938F939F9383E08BBB22
S11300802FEF89E698E1215080409040E1F700C0CD
S113009000008CE08BBB2FEF89E698E12150804073
S11300A09040E1F700C0000080E38BBB2FEF89E6AE
S11300B098E1215080409040E1F700C0000080ECBE
S11300C08BBB2FEF89E698E1215080409040E1F707
S11300D000C000009F918F912F910F900FBE0F9041
S11300E01F9018951F920F920FB60F9211242F9301
S11300F08F939F9383EC8BBB2FEF89E698E121507C
S113010080409040E1F700C000008CE38BBB2FEFF0
S113011089E698E1215080409040E1F700C000005A
S11301201BBA2FEF89E698E1215080409040E1F717
S113013000C0000088E18BBB2FEF89E698E12150D5
S113014080409040E1F700C0000084E28BBB2FEFB9
S113015089E698E1215080409040E1F700C000001A
S113016082E48BBB2FEF89E698E1215080409040D8
S1130170E1F700C0000081E88BBB2FEF89E698E12E
S1130180215080409040E1F700C000001BBA2FEFDF
S113019089E698E1215080409040E1F700C00000DA
S11301A09F918F912F910F900FBE0F901F901895D4
S11301B08FEF8ABB80E68BBF82E085BF80E484BF7B
S11301C078941BBA20E030E016C04BB381E090E095
S11301D0022E02C0880F991F0A94E2F7842B8BBB6E
S11301E04FEF80E792E0415080409040E1F700C03B
S11301F000002F5F3F4F283031053CF327E030E00B
S113020017C04BB381E090E0022E02C0880F991F03
S11302100A94E2F7809584238BBB4FEF80E792E04A
S1130220415080409040E1F700C000002150310966
S113023033233CF727E030E016C04BB381E090E075
S1130240022E02C0880F991F0A94E2F7842B8BBBFD
S11302504FEF80E792E0415080409040E1F700C0CA
S1130260000021503109332344F720E030E017C067
S11302704BB381E090E0022E02C0880F991F0A94CC
S1130280E2F7809584238BBB4FEF80E792E04150E7
S113029080409040E1F700C000002F5F3F4F2830BE
S10D02A0310534F38FCFF894FFCF3B
S9030000FC
