:100000000C942A000C9434000C9434000C943400AA
:100010000C9434000C9434000C9434000C94340090
:100020000C9434000C9434000C9434000C94340080
:100030000C9434000C9434000C9434000C94340070
:100040000C9434000C9434000C9434000C94340060
:100050000C94340011241FBECFE5D4E0DEBFCDBF29
:100060000E9436000C944F000C9400001ABA8FEFD7
:1000700084BB83E081BB80E587B986E886B986B119
:10008000806486B9349BFECF84B185BB85B182BBC9
:100090008FE19EE40197F1F700C00000F0CFF894E3
:0200A000FFCF90
:00000001FF
