S01A00004144435F776974685F496E746572727570742E73726563FB
S11300000C942A000C9434000C9434000C943400A6
S11300100C9434000C9434000C9434000C9434008C
S11300200C9434000C9434000C9434000C9434007C
S11300300C9434000C9434000C9436000C9434006A
S11300400C9434000C9434000C9434000C9434005C
S11300500C94340011241FBECFE5D4E0DEBFCDBF25
S11300600E9446000C9454000C9400001F920F92BE
S11300700FB60F9211248F9384B185BB85B182BBD7
S11300808F910F900FBE0F901F9018951ABA85E4A8
S113009087B98EE886B98FEF84BB83E081BB7894FF
S10F00A086B1806486B9FCCFF894FFCFD1
S9030000FC
