S0160000375365676D656E744D61747269782E737265638F
S11300000C942A000C943F000C943F000C943F0085
S11300100C943F000C943F000C943F000C943F0060
S11300200C943F000C943F000C943F000C943F0050
S11300300C943F000C943F000C943F000C943F0040
S11300400C943F000C943F000C943F000C943F0030
S11300500C943F0011241FBECFE5D4E0DEBFCDBF1A
S113006010E0A0E6B0E0ECE6F1E002C005900D92ED
S1130070AA36B107D9F70E9441000C94B4000C943D
S113008000008FE784BB8FE081BB60E070E068C054
S11300906230710589F4A330B10571F4C530D1051E
S11300A059F44930510541F440E050E0C0E0D0E05B
S11300B0A0E0B0E060E070E080E090E035C02EE0C9
S11300C022BBFB01E05AFF4F208125BBEFE2F5E79D
S11300D03197F1F700C000002DE022BBFD01E05A8A
S11300E0FF4F208125BBEFE2F5E73197F1F700C020
S11300F000002BE022BBFE01E05AFF4F208125BB0C
S1130100EFE2F5E73197F1F700C0000027E022BBEA
S1130110FA01E05AFF4F208125BBEFE2F5E7319762
S1130120F1F700C0000001968A30910544F24F5F58
S11301305F4F02C040E050E04A3051050CF4A8CFB4
S1130140219602C0C0E0D0E0C630D1059CF31196E0
S113015002C0A0E0B0E0AA30B105A4F36F5F7F4F06
S10F016063307105B4F391CFF894FFCF25
S10D016C3F065B4F666D7D077F6F51
S9030000FC
