S017000054696D6572305F4354435F4D6F64652E73726563BF
S11300000C942A000C9434000C9434000C943400A6
S11300100C9434000C9434000C9434000C9434008C
S11300200C9434000C9434000C9434000C9434007C
S11300300C9434000C9434000C9434000C9434006C
S11300400C9434000C9434000C9434000C9434005C
S11300500C94340011241FBECFE5D4E0DEBFCDBF25
S11300600E9436000C9443000C94000088E087BB87
S113007089E183BF12BEC89B03C088E28CBFFBCF5B
S10D008080E58CBFF8CFF894FFCFA1
S9030000FC
