S0250000375365676D656E7420436F756E746572207573696E67205377697463682E737265631D
S11300000C942A000C943F000C943F000C943F0085
S11300100C943F000C943F000C943F000C943F0060
S11300200C943F000C943F000C943F000C943F0050
S11300300C943F000C943F000C943F000C943F0040
S11300400C943F000C943F000C943F000C943F0030
S11300500C943F0011241FBECFE5D4E0DEBFCDBF1A
S113006010E0A0E6B0E0E8E4F1E002C005900D92F3
S1130070AA36B107D9F70E9441000C94A2000C944F
S113008000008FE784BB8FE081BB1ABA40E050E0E8
S113009060E070E0CF9B1AC0CF99FECF6530710548
S11300A019F44930510571F06530710544F4493053
S11300B0510529F46F5F7F4F40E050E007C04F5F68
S11300C05F4F04C040E050E060E070E0C89B18C09F
S11300D06115710519F44115510571F016161706CD
S11300E044F44115510529F46150710949E050E087
S11300F007C04150510904C049E050E065E070E098
S113010080E090E01BC02BE022BBFB01E05AFF4FD4
S1130110208125BBEFE2F5E73197F1F700C000003D
S113012027E022BBFA01E05AFF4F208125BBEFE212
S1130130F5E73197F1F700C0000001968A30910588
S10B014014F3A8CFF894FFCFDB
S10D01483F065B4F666D7D077F6F75
S9030000FC
